{
  "_format": "hh-sol-artifact-1",
  "contractName": "Domains",
  "sourceName": "contracts/Domains.sol",
  "abi": [
    {
      "inputs": [
        {
          "internalType": "string",
          "name": "_tld",
          "type": "string"
        }
      ],
      "stateMutability": "payable",
      "type": "constructor"
    },
    {
      "inputs": [
        {
          "internalType": "address",
          "name": "sender",
          "type": "address"
        },
        {
          "internalType": "uint256",
          "name": "tokenId",
          "type": "uint256"
        },
        {
          "internalType": "address",
          "name": "owner",
          "type": "address"
        }
      ],
      "name": "ERC721IncorrectOwner",
      "type": "error"
    },
    {
      "inputs": [
        {
          "internalType": "address",
          "name": "operator",
          "type": "address"
        },
        {
          "internalType": "uint256",
          "name": "tokenId",
          "type": "uint256"
        }
      ],
      "name": "ERC721InsufficientApproval",
      "type": "error"
    },
    {
      "inputs": [
        {
          "internalType": "address",
          "name": "approver",
          "type": "address"
        }
      ],
      "name": "ERC721InvalidApprover",
      "type": "error"
    },
    {
      "inputs": [
        {
          "internalType": "address",
          "name": "operator",
          "type": "address"
        }
      ],
      "name": "ERC721InvalidOperator",
      "type": "error"
    },
    {
      "inputs": [
        {
          "internalType": "address",
          "name": "owner",
          "type": "address"
        }
      ],
      "name": "ERC721InvalidOwner",
      "type": "error"
    },
    {
      "inputs": [
        {
          "internalType": "address",
          "name": "receiver",
          "type": "address"
        }
      ],
      "name": "ERC721InvalidReceiver",
      "type": "error"
    },
    {
      "inputs": [
        {
          "internalType": "address",
          "name": "sender",
          "type": "address"
        }
      ],
      "name": "ERC721InvalidSender",
      "type": "error"
    },
    {
      "inputs": [
        {
          "internalType": "uint256",
          "name": "tokenId",
          "type": "uint256"
        }
      ],
      "name": "ERC721NonexistentToken",
      "type": "error"
    },
    {
      "anonymous": false,
      "inputs": [
        {
          "indexed": true,
          "internalType": "address",
          "name": "owner",
          "type": "address"
        },
        {
          "indexed": true,
          "internalType": "address",
          "name": "approved",
          "type": "address"
        },
        {
          "indexed": true,
          "internalType": "uint256",
          "name": "tokenId",
          "type": "uint256"
        }
      ],
      "name": "Approval",
      "type": "event"
    },
    {
      "anonymous": false,
      "inputs": [
        {
          "indexed": true,
          "internalType": "address",
          "name": "owner",
          "type": "address"
        },
        {
          "indexed": true,
          "internalType": "address",
          "name": "operator",
          "type": "address"
        },
        {
          "indexed": false,
          "internalType": "bool",
          "name": "approved",
          "type": "bool"
        }
      ],
      "name": "ApprovalForAll",
      "type": "event"
    },
    {
      "anonymous": false,
      "inputs": [
        {
          "indexed": false,
          "internalType": "uint256",
          "name": "_fromTokenId",
          "type": "uint256"
        },
        {
          "indexed": false,
          "internalType": "uint256",
          "name": "_toTokenId",
          "type": "uint256"
        }
      ],
      "name": "BatchMetadataUpdate",
      "type": "event"
    },
    {
      "anonymous": false,
      "inputs": [
        {
          "indexed": false,
          "internalType": "uint256",
          "name": "_tokenId",
          "type": "uint256"
        }
      ],
      "name": "MetadataUpdate",
      "type": "event"
    },
    {
      "anonymous": false,
      "inputs": [
        {
          "indexed": true,
          "internalType": "address",
          "name": "from",
          "type": "address"
        },
        {
          "indexed": true,
          "internalType": "address",
          "name": "to",
          "type": "address"
        },
        {
          "indexed": true,
          "internalType": "uint256",
          "name": "tokenId",
          "type": "uint256"
        }
      ],
      "name": "Transfer",
      "type": "event"
    },
    {
      "inputs": [
        {
          "internalType": "address",
          "name": "to",
          "type": "address"
        },
        {
          "internalType": "uint256",
          "name": "tokenId",
          "type": "uint256"
        }
      ],
      "name": "approve",
      "outputs": [],
      "stateMutability": "nonpayable",
      "type": "function"
    },
    {
      "inputs": [
        {
          "internalType": "address",
          "name": "owner",
          "type": "address"
        }
      ],
      "name": "balanceOf",
      "outputs": [
        {
          "internalType": "uint256",
          "name": "",
          "type": "uint256"
        }
      ],
      "stateMutability": "view",
      "type": "function"
    },
    {
      "inputs": [
        {
          "internalType": "string",
          "name": "",
          "type": "string"
        }
      ],
      "name": "domains",
      "outputs": [
        {
          "internalType": "address",
          "name": "",
          "type": "address"
        }
      ],
      "stateMutability": "view",
      "type": "function"
    },
    {
      "inputs": [
        {
          "internalType": "string",
          "name": "name",
          "type": "string"
        }
      ],
      "name": "getAddress",
      "outputs": [
        {
          "internalType": "address",
          "name": "",
          "type": "address"
        }
      ],
      "stateMutability": "view",
      "type": "function"
    },
    {
      "inputs": [
        {
          "internalType": "uint256",
          "name": "tokenId",
          "type": "uint256"
        }
      ],
      "name": "getApproved",
      "outputs": [
        {
          "internalType": "address",
          "name": "",
          "type": "address"
        }
      ],
      "stateMutability": "view",
      "type": "function"
    },
    {
      "inputs": [
        {
          "internalType": "string",
          "name": "name",
          "type": "string"
        }
      ],
      "name": "getRecord",
      "outputs": [
        {
          "internalType": "string",
          "name": "",
          "type": "string"
        }
      ],
      "stateMutability": "view",
      "type": "function"
    },
    {
      "inputs": [
        {
          "internalType": "address",
          "name": "owner",
          "type": "address"
        },
        {
          "internalType": "address",
          "name": "operator",
          "type": "address"
        }
      ],
      "name": "isApprovedForAll",
      "outputs": [
        {
          "internalType": "bool",
          "name": "",
          "type": "bool"
        }
      ],
      "stateMutability": "view",
      "type": "function"
    },
    {
      "inputs": [],
      "name": "name",
      "outputs": [
        {
          "internalType": "string",
          "name": "",
          "type": "string"
        }
      ],
      "stateMutability": "view",
      "type": "function"
    },
    {
      "inputs": [
        {
          "internalType": "uint256",
          "name": "tokenId",
          "type": "uint256"
        }
      ],
      "name": "ownerOf",
      "outputs": [
        {
          "internalType": "address",
          "name": "",
          "type": "address"
        }
      ],
      "stateMutability": "view",
      "type": "function"
    },
    {
      "inputs": [
        {
          "internalType": "string",
          "name": "name",
          "type": "string"
        }
      ],
      "name": "price",
      "outputs": [
        {
          "internalType": "uint256",
          "name": "",
          "type": "uint256"
        }
      ],
      "stateMutability": "pure",
      "type": "function"
    },
    {
      "inputs": [
        {
          "internalType": "string",
          "name": "",
          "type": "string"
        }
      ],
      "name": "records",
      "outputs": [
        {
          "internalType": "string",
          "name": "",
          "type": "string"
        }
      ],
      "stateMutability": "view",
      "type": "function"
    },
    {
      "inputs": [
        {
          "internalType": "string",
          "name": "name",
          "type": "string"
        }
      ],
      "name": "register",
      "outputs": [],
      "stateMutability": "payable",
      "type": "function"
    },
    {
      "inputs": [
        {
          "internalType": "address",
          "name": "from",
          "type": "address"
        },
        {
          "internalType": "address",
          "name": "to",
          "type": "address"
        },
        {
          "internalType": "uint256",
          "name": "tokenId",
          "type": "uint256"
        }
      ],
      "name": "safeTransferFrom",
      "outputs": [],
      "stateMutability": "nonpayable",
      "type": "function"
    },
    {
      "inputs": [
        {
          "internalType": "address",
          "name": "from",
          "type": "address"
        },
        {
          "internalType": "address",
          "name": "to",
          "type": "address"
        },
        {
          "internalType": "uint256",
          "name": "tokenId",
          "type": "uint256"
        },
        {
          "internalType": "bytes",
          "name": "data",
          "type": "bytes"
        }
      ],
      "name": "safeTransferFrom",
      "outputs": [],
      "stateMutability": "nonpayable",
      "type": "function"
    },
    {
      "inputs": [
        {
          "internalType": "address",
          "name": "operator",
          "type": "address"
        },
        {
          "internalType": "bool",
          "name": "approved",
          "type": "bool"
        }
      ],
      "name": "setApprovalForAll",
      "outputs": [],
      "stateMutability": "nonpayable",
      "type": "function"
    },
    {
      "inputs": [
        {
          "internalType": "string",
          "name": "name",
          "type": "string"
        },
        {
          "internalType": "string",
          "name": "record",
          "type": "string"
        }
      ],
      "name": "setRecord",
      "outputs": [],
      "stateMutability": "nonpayable",
      "type": "function"
    },
    {
      "inputs": [
        {
          "internalType": "bytes4",
          "name": "interfaceId",
          "type": "bytes4"
        }
      ],
      "name": "supportsInterface",
      "outputs": [
        {
          "internalType": "bool",
          "name": "",
          "type": "bool"
        }
      ],
      "stateMutability": "view",
      "type": "function"
    },
    {
      "inputs": [],
      "name": "symbol",
      "outputs": [
        {
          "internalType": "string",
          "name": "",
          "type": "string"
        }
      ],
      "stateMutability": "view",
      "type": "function"
    },
    {
      "inputs": [],
      "name": "tld",
      "outputs": [
        {
          "internalType": "string",
          "name": "",
          "type": "string"
        }
      ],
      "stateMutability": "view",
      "type": "function"
    },
    {
      "inputs": [
        {
          "internalType": "uint256",
          "name": "tokenId",
          "type": "uint256"
        }
      ],
      "name": "tokenURI",
      "outputs": [
        {
          "internalType": "string",
          "name": "",
          "type": "string"
        }
      ],
      "stateMutability": "view",
      "type": "function"
    },
    {
      "inputs": [
        {
          "internalType": "address",
          "name": "from",
          "type": "address"
        },
        {
          "internalType": "address",
          "name": "to",
          "type": "address"
        },
        {
          "internalType": "uint256",
          "name": "tokenId",
          "type": "uint256"
        }
      ],
      "name": "transferFrom",
      "outputs": [],
      "stateMutability": "nonpayable",
      "type": "function"
    }
  ],
  "bytecode": "0x6080604052604051806108a0016040528061086b81526020016200444a61086b9139600990816200003191906200051a565b506040518060400160405280600d81526020017f3c2f746578743e3c2f7376673e00000000000000000000000000000000000000815250600a90816200007891906200051a565b5060405162004cb538038062004cb583398181016040528101906200009e919062000765565b6040518060400160405280601281526020017f4e696e6a61204e616d65205365727669636500000000000000000000000000008152506040518060400160405280600381526020017f4e4e53000000000000000000000000000000000000000000000000000000000081525081600090816200011b91906200051a565b5080600190816200012d91906200051a565b50505080600890816200014191906200051a565b50620001896040518060400160405280601881526020017f2573206e616d652073657276696365206465706c6f7965640000000000000000815250826200019060201b60201c565b5062000872565b620002328282604051602401620001a992919062000808565b6040516020818303038152906040527f4b5c4277000000000000000000000000000000000000000000000000000000007bffffffffffffffffffffffffffffffffffffffffffffffffffffffff19166020820180517bffffffffffffffffffffffffffffffffffffffffffffffffffffffff83818316178352505050506200023660201b60201c565b5050565b6200025c81620002576200025f60201b6200129e176200028060201b60201c565b60201c565b50565b60006a636f6e736f6c652e6c6f679050600080835160208501845afa505050565b6200029460201b6200271917819050919050565b6200029e62000843565b565b600081519050919050565b7f4e487b7100000000000000000000000000000000000000000000000000000000600052604160045260246000fd5b7f4e487b7100000000000000000000000000000000000000000000000000000000600052602260045260246000fd5b600060028204905060018216806200032257607f821691505b602082108103620003385762000337620002da565b5b50919050565b60008190508160005260206000209050919050565b60006020601f8301049050919050565b600082821b905092915050565b600060088302620003a27fffffffffffffffffffffffffffffffffffffffffffffffffffffffffffffffff8262000363565b620003ae868362000363565b95508019841693508086168417925050509392505050565b6000819050919050565b6000819050919050565b6000620003fb620003f5620003ef84620003c6565b620003d0565b620003c6565b9050919050565b6000819050919050565b6200041783620003da565b6200042f620004268262000402565b84845462000370565b825550505050565b600090565b6200044662000437565b620004538184846200040c565b505050565b5b818110156200047b576200046f6000826200043c565b60018101905062000459565b5050565b601f821115620004ca5762000494816200033e565b6200049f8462000353565b81016020851015620004af578190505b620004c7620004be8562000353565b83018262000458565b50505b505050565b600082821c905092915050565b6000620004ef60001984600802620004cf565b1980831691505092915050565b60006200050a8383620004dc565b9150826002028217905092915050565b6200052582620002a0565b67ffffffffffffffff811115620005415762000540620002ab565b5b6200054d825462000309565b6200055a8282856200047f565b600060209050601f8311600181146200059257600084156200057d578287015190505b620005898582620004fc565b865550620005f9565b601f198416620005a2866200033e565b60005b82811015620005cc57848901518255600182019150602085019450602081019050620005a5565b86831015620005ec5784890151620005e8601f891682620004dc565b8355505b6001600288020188555050505b505050505050565b6000604051905090565b600080fd5b600080fd5b600080fd5b600080fd5b6000601f19601f8301169050919050565b6200063b826200061f565b810181811067ffffffffffffffff821117156200065d576200065c620002ab565b5b80604052505050565b60006200067262000601565b905062000680828262000630565b919050565b600067ffffffffffffffff821115620006a357620006a2620002ab565b5b620006ae826200061f565b9050602081019050919050565b60005b83811015620006db578082015181840152602081019050620006be565b60008484015250505050565b6000620006fe620006f88462000685565b62000666565b9050828152602081018484840111156200071d576200071c6200061a565b5b6200072a848285620006bb565b509392505050565b600082601f8301126200074a576200074962000615565b5b81516200075c848260208601620006e7565b91505092915050565b6000602082840312156200077e576200077d6200060b565b5b600082015167ffffffffffffffff8111156200079f576200079e62000610565b5b620007ad8482850162000732565b91505092915050565b600082825260208201905092915050565b6000620007d482620002a0565b620007e08185620007b6565b9350620007f2818560208601620006bb565b620007fd816200061f565b840191505092915050565b60006040820190508181036000830152620008248185620007c7565b905081810360208301526200083a8184620007c7565b90509392505050565b7f4e487b7100000000000000000000000000000000000000000000000000000000600052605160045260246000fd5b613bc880620008826000396000f3fe60806040526004361061012a5760003560e01c80636352211e116100ab578063bf40fac11161006f578063bf40fac114610428578063c1880a9814610465578063c87b56dd1461048e578063e985e9c5146104cb578063f2c298be14610508578063fe2c6198146105245761012a565b80636352211e1461033157806370a082311461036e57806395d89b41146103ab578063a22cb465146103d6578063b88d4fde146103ff5761012a565b806323b872dd116100f257806323b872dd1461023a57806326449235146102635780632d551432146102a057806342842e0e146102cb578063541e771d146102f45761012a565b806301ffc9a71461012f57806306fdde031461016c578063081812fc14610197578063095ea7b3146101d457806311dd8845146101fd575b600080fd5b34801561013b57600080fd5b506101566004803603810190610151919061278f565b610561565b60405161016391906127d7565b60405180910390f35b34801561017857600080fd5b506101816105c2565b60405161018e9190612882565b60405180910390f35b3480156101a357600080fd5b506101be60048036038101906101b991906128da565b610654565b6040516101cb9190612948565b60405180910390f35b3480156101e057600080fd5b506101fb60048036038101906101f6919061298f565b610670565b005b34801561020957600080fd5b50610224600480360381019061021f9190612a34565b610686565b6040516102319190612882565b60405180910390f35b34801561024657600080fd5b50610261600480360381019061025c9190612a81565b610739565b005b34801561026f57600080fd5b5061028a60048036038101906102859190612c04565b61083b565b6040516102979190612948565b60405180910390f35b3480156102ac57600080fd5b506102b5610884565b6040516102c29190612882565b60405180910390f35b3480156102d757600080fd5b506102f260048036038101906102ed9190612a81565b610912565b005b34801561030057600080fd5b5061031b60048036038101906103169190612c04565b610932565b6040516103289190612882565b60405180910390f35b34801561033d57600080fd5b50610358600480360381019061035391906128da565b6109e8565b6040516103659190612948565b60405180910390f35b34801561037a57600080fd5b5061039560048036038101906103909190612c4d565b6109fa565b6040516103a29190612c89565b60405180910390f35b3480156103b757600080fd5b506103c0610ab4565b6040516103cd9190612882565b60405180910390f35b3480156103e257600080fd5b506103fd60048036038101906103f89190612cd0565b610b46565b005b34801561040b57600080fd5b5061042660048036038101906104219190612db1565b610b5c565b005b34801561043457600080fd5b5061044f600480360381019061044a9190612a34565b610b79565b60405161045c9190612948565b60405180910390f35b34801561047157600080fd5b5061048c60048036038101906104879190612e34565b610bc4565b005b34801561049a57600080fd5b506104b560048036038101906104b091906128da565b610c72565b6040516104c29190612882565b60405180910390f35b3480156104d757600080fd5b506104f260048036038101906104ed9190612eb5565b610d85565b6040516104ff91906127d7565b60405180910390f35b610522600480360381019061051d9190612a34565b610e19565b005b34801561053057600080fd5b5061054b60048036038101906105469190612a34565b6111fa565b6040516105589190612c89565b60405180910390f35b6000634906490660e01b7bffffffffffffffffffffffffffffffffffffffffffffffffffffffff1916827bffffffffffffffffffffffffffffffffffffffffffffffffffffffff191614806105bb57506105ba826112bf565b5b9050919050565b6060600080546105d190612f24565b80601f01602080910402602001604051908101604052809291908181526020018280546105fd90612f24565b801561064a5780601f1061061f5761010080835404028352916020019161064a565b820191906000526020600020905b81548152906001019060200180831161062d57829003601f168201915b5050505050905090565b600061065f826113a1565b5061066982611429565b9050919050565b610682828261067d611466565b61146e565b5050565b6060600c838360405161069a929190612f85565b908152602001604051809103902080546106b390612f24565b80601f01602080910402602001604051908101604052809291908181526020018280546106df90612f24565b801561072c5780601f106107015761010080835404028352916020019161072c565b820191906000526020600020905b81548152906001019060200180831161070f57829003601f168201915b5050505050905092915050565b600073ffffffffffffffffffffffffffffffffffffffff168273ffffffffffffffffffffffffffffffffffffffff16036107ab5760006040517f64a0ae920000000000000000000000000000000000000000000000000000000081526004016107a29190612948565b60405180910390fd5b60006107bf83836107ba611466565b611480565b90508373ffffffffffffffffffffffffffffffffffffffff168173ffffffffffffffffffffffffffffffffffffffff1614610835578382826040517f64283d7b00000000000000000000000000000000000000000000000000000000815260040161082c93929190612f9e565b60405180910390fd5b50505050565b600b818051602081018201805184825260208301602085012081835280955050505050506000915054906101000a900473ffffffffffffffffffffffffffffffffffffffff1681565b6008805461089190612f24565b80601f01602080910402602001604051908101604052809291908181526020018280546108bd90612f24565b801561090a5780601f106108df5761010080835404028352916020019161090a565b820191906000526020600020905b8154815290600101906020018083116108ed57829003601f168201915b505050505081565b61092d83838360405180602001604052806000815250610b5c565b505050565b600c81805160208101820180518482526020830160208501208183528095505050505050600091509050805461096790612f24565b80601f016020809104026020016040519081016040528092919081815260200182805461099390612f24565b80156109e05780601f106109b5576101008083540402835291602001916109e0565b820191906000526020600020905b8154815290600101906020018083116109c357829003601f168201915b505050505081565b60006109f3826113a1565b9050919050565b60008073ffffffffffffffffffffffffffffffffffffffff168273ffffffffffffffffffffffffffffffffffffffff1603610a6d5760006040517f89c62b64000000000000000000000000000000000000000000000000000000008152600401610a649190612948565b60405180910390fd5b600360008373ffffffffffffffffffffffffffffffffffffffff1673ffffffffffffffffffffffffffffffffffffffff168152602001908152602001600020549050919050565b606060018054610ac390612f24565b80601f0160208091040260200160405190810160405280929190818152602001828054610aef90612f24565b8015610b3c5780601f10610b1157610100808354040283529160200191610b3c565b820191906000526020600020905b815481529060010190602001808311610b1f57829003601f168201915b5050505050905090565b610b58610b51611466565b838361169a565b5050565b610b67848484610739565b610b7384848484611809565b50505050565b6000600b8383604051610b8d929190612f85565b908152602001604051809103902060009054906101000a900473ffffffffffffffffffffffffffffffffffffffff16905092915050565b3373ffffffffffffffffffffffffffffffffffffffff16600b8585604051610bed929190612f85565b908152602001604051809103902060009054906101000a900473ffffffffffffffffffffffffffffffffffffffff1673ffffffffffffffffffffffffffffffffffffffff1614610c3c57600080fd5b8181600c8686604051610c50929190612f85565b90815260200160405180910390209182610c6b92919061318c565b5050505050565b6060610c7d826113a1565b506000600660008481526020019081526020016000208054610c9e90612f24565b80601f0160208091040260200160405190810160405280929190818152602001828054610cca90612f24565b8015610d175780601f10610cec57610100808354040283529160200191610d17565b820191906000526020600020905b815481529060010190602001808311610cfa57829003601f168201915b505050505090506000610d286119c0565b90506000815103610d3d578192505050610d80565b600082511115610d72578082604051602001610d5a92919061328d565b60405160208183030381529060405292505050610d80565b610d7b846119d7565b925050505b919050565b6000600560008473ffffffffffffffffffffffffffffffffffffffff1673ffffffffffffffffffffffffffffffffffffffff16815260200190815260200160002060008373ffffffffffffffffffffffffffffffffffffffff1673ffffffffffffffffffffffffffffffffffffffff16815260200190815260200160002060009054906101000a900460ff16905092915050565b600073ffffffffffffffffffffffffffffffffffffffff16600b8383604051610e43929190612f85565b908152602001604051809103902060009054906101000a900473ffffffffffffffffffffffffffffffffffffffff1673ffffffffffffffffffffffffffffffffffffffff1614610e9257600080fd5b6000610e9e83836111fa565b905080341015610ee3576040517f08c379a0000000000000000000000000000000000000000000000000000000008152600401610eda906132fd565b60405180910390fd5b600083836008604051602001610efb939291906133ec565b60405160208183030381529060405290506000600982600a604051602001610f259392919061341d565b60405160208183030381529060405290506000610f426007611a40565b90506000610f9387878080601f016020809104026020016040519081016040528093929190818152602001838380828437600081840152601f19601f82011690508083019250505050505050611a4e565b90506000610fa082611c03565b9050611094604051806060016040528060318152602001613ae96031913989898080601f016020809104026020016040519081016040528093929190818152602001838380828437600081840152601f19601f820116905080830192505050505050506008805461101090612f24565b80601f016020809104026020016040519081016040528092919081815260200182805461103c90612f24565b80156110895780601f1061105e57610100808354040283529160200191611089565b820191906000526020600020905b81548152906001019060200180831161106c57829003601f168201915b505050505086611cd1565b60006110ca866110a387611d73565b846040516020016110b6939291906135ca565b604051602081830303815290604052611d73565b90506000816040516020016110df9190613673565b6040516020818303038152906040529050611111604051806060016040528060398152602001613ab060399139611ed6565b6111506040518060400160405280600e81526020017f46696e616c20746f6b656e55524900000000000000000000000000000000000081525082611f6f565b611171604051806060016040528060398152602001613b1a60399139611ed6565b61117b338661200b565b6111858582612029565b33600b8b8b604051611198929190612f85565b908152602001604051809103902060006101000a81548173ffffffffffffffffffffffffffffffffffffffff021916908373ffffffffffffffffffffffffffffffffffffffff1602179055506111ee6007612085565b50505050505050505050565b60008061124a84848080601f016020809104026020016040519081016040528093929190818152602001838380828437600081840152601f19601f82011690508083019250505050505050611a4e565b90506000811161125957600080fd5b60038103611272576706f05b59d3b20000915050611298565b6004810361128b57670429d069189e0000915050611298565b67016345785d8a00009150505b92915050565b60006a636f6e736f6c652e6c6f679050600080835160208501845afa505050565b60007f80ac58cd000000000000000000000000000000000000000000000000000000007bffffffffffffffffffffffffffffffffffffffffffffffffffffffff1916827bffffffffffffffffffffffffffffffffffffffffffffffffffffffff1916148061138a57507f5b5e139f000000000000000000000000000000000000000000000000000000007bffffffffffffffffffffffffffffffffffffffffffffffffffffffff1916827bffffffffffffffffffffffffffffffffffffffffffffffffffffffff1916145b8061139a57506113998261209b565b5b9050919050565b6000806113ad83612105565b9050600073ffffffffffffffffffffffffffffffffffffffff168173ffffffffffffffffffffffffffffffffffffffff160361142057826040517f7e2732890000000000000000000000000000000000000000000000000000000081526004016114179190612c89565b60405180910390fd5b80915050919050565b60006004600083815260200190815260200160002060009054906101000a900473ffffffffffffffffffffffffffffffffffffffff169050919050565b600033905090565b61147b8383836001612142565b505050565b60008061148c84612105565b9050600073ffffffffffffffffffffffffffffffffffffffff168373ffffffffffffffffffffffffffffffffffffffff16146114ce576114cd818486612307565b5b600073ffffffffffffffffffffffffffffffffffffffff168173ffffffffffffffffffffffffffffffffffffffff161461155f57611510600085600080612142565b6001600360008373ffffffffffffffffffffffffffffffffffffffff1673ffffffffffffffffffffffffffffffffffffffff168152602001908152602001600020600082825403925050819055505b600073ffffffffffffffffffffffffffffffffffffffff168573ffffffffffffffffffffffffffffffffffffffff16146115e2576001600360008773ffffffffffffffffffffffffffffffffffffffff1673ffffffffffffffffffffffffffffffffffffffff168152602001908152602001600020600082825401925050819055505b846002600086815260200190815260200160002060006101000a81548173ffffffffffffffffffffffffffffffffffffffff021916908373ffffffffffffffffffffffffffffffffffffffff160217905550838573ffffffffffffffffffffffffffffffffffffffff168273ffffffffffffffffffffffffffffffffffffffff167fddf252ad1be2c89b69c2b068fc378daa952ba7f163c4a11628f55a4df523b3ef60405160405180910390a4809150509392505050565b600073ffffffffffffffffffffffffffffffffffffffff168273ffffffffffffffffffffffffffffffffffffffff160361170b57816040517f5b08ba180000000000000000000000000000000000000000000000000000000081526004016117029190612948565b60405180910390fd5b80600560008573ffffffffffffffffffffffffffffffffffffffff1673ffffffffffffffffffffffffffffffffffffffff16815260200190815260200160002060008473ffffffffffffffffffffffffffffffffffffffff1673ffffffffffffffffffffffffffffffffffffffff16815260200190815260200160002060006101000a81548160ff0219169083151502179055508173ffffffffffffffffffffffffffffffffffffffff168373ffffffffffffffffffffffffffffffffffffffff167f17307eab39ab6107e8899845ad3d59bd9653f200f220920489ca2b5937696c31836040516117fc91906127d7565b60405180910390a3505050565b60008373ffffffffffffffffffffffffffffffffffffffff163b11156119ba578273ffffffffffffffffffffffffffffffffffffffff1663150b7a0261184d611466565b8685856040518563ffffffff1660e01b815260040161186f94939291906136ea565b6020604051808303816000875af19250505080156118ab57506040513d601f19601f820116820180604052508101906118a8919061374b565b60015b61192f573d80600081146118db576040519150601f19603f3d011682016040523d82523d6000602084013e6118e0565b606091505b50600081510361192757836040517f64a0ae9200000000000000000000000000000000000000000000000000000000815260040161191e9190612948565b60405180910390fd5b805181602001fd5b63150b7a0260e01b7bffffffffffffffffffffffffffffffffffffffffffffffffffffffff1916817bffffffffffffffffffffffffffffffffffffffffffffffffffffffff1916146119b857836040517f64a0ae920000000000000000000000000000000000000000000000000000000081526004016119af9190612948565b60405180910390fd5b505b50505050565b606060405180602001604052806000815250905090565b60606119e2826113a1565b5060006119ed6119c0565b90506000815111611a0d5760405180602001604052806000815250611a38565b80611a1784611c03565b604051602001611a2892919061328d565b6040516020818303038152906040525b915050919050565b600081600001549050919050565b60008060008084519050600092505b80821015611bf8576000858381518110611a7a57611a79613778565b5b602001015160f81c60f81b9050608060f81b817effffffffffffffffffffffffffffffffffffffffffffffffffffffffffffff19161015611ac957600183611ac291906137d6565b9250611be4565b60e060f81b817effffffffffffffffffffffffffffffffffffffffffffffffffffffffffffff19161015611b0b57600283611b0491906137d6565b9250611be3565b60f060f81b817effffffffffffffffffffffffffffffffffffffffffffffffffffffffffffff19161015611b4d57600383611b4691906137d6565b9250611be2565b60f8801b817effffffffffffffffffffffffffffffffffffffffffffffffffffffffffffff19161015611b8e57600483611b8791906137d6565b9250611be1565b60fc60f81b817effffffffffffffffffffffffffffffffffffffffffffffffffffffffffffff19161015611bd057600583611bc991906137d6565b9250611be0565b600683611bdd91906137d6565b92505b5b5b5b5b508280611bf09061380a565b935050611a5d565b829350505050919050565b606060006001611c12846123cb565b01905060008167ffffffffffffffff811115611c3157611c30612ad9565b5b6040519080825280601f01601f191660200182016040528015611c635781602001600182028036833780820191505090505b509050600082602001820190505b600115611cc6578080600190039150507f3031323334353637383961626364656600000000000000000000000000000000600a86061a8153600a8581611cba57611cb9613852565b5b04945060008503611c71575b819350505050919050565b611d6d84848484604051602401611ceb9493929190613881565b6040516020818303038152906040527f8eafb02b000000000000000000000000000000000000000000000000000000007bffffffffffffffffffffffffffffffffffffffffffffffffffffffff19166020820180517bffffffffffffffffffffffffffffffffffffffffffffffffffffffff838183161783525050505061251e565b50505050565b60606000825103611d9557604051806020016040528060008152509050611ed1565b6000604051806060016040528060408152602001613b536040913990506000600360028551611dc491906137d6565b611dce91906138db565b6004611dda919061390c565b67ffffffffffffffff811115611df357611df2612ad9565b5b6040519080825280601f01601f191660200182016040528015611e255781602001600182028036833780820191505090505b509050600182016020820185865187015b80821015611e91576003820191508151603f8160121c168501518453600184019350603f81600c1c168501518453600184019350603f8160061c168501518453600184019350603f8116850151845360018401935050611e36565b5050600386510660018114611ead5760028114611ec057611ec8565b603d6001830353603d6002830353611ec8565b603d60018303535b50505080925050505b919050565b611f6c81604051602401611eea9190612882565b6040516020818303038152906040527f41304fac000000000000000000000000000000000000000000000000000000007bffffffffffffffffffffffffffffffffffffffffffffffffffffffff19166020820180517bffffffffffffffffffffffffffffffffffffffffffffffffffffffff838183161783525050505061251e565b50565b6120078282604051602401611f8592919061394e565b6040516020818303038152906040527f4b5c4277000000000000000000000000000000000000000000000000000000007bffffffffffffffffffffffffffffffffffffffffffffffffffffffff19166020820180517bffffffffffffffffffffffffffffffffffffffffffffffffffffffff838183161783525050505061251e565b5050565b612025828260405180602001604052806000815250612538565b5050565b806006600084815260200190815260200160002090816120499190613985565b507ff8e1a15aba9398e019f0b49df1a4fde98ee17ae345cb5f6b5e2c27f5033e8ce7826040516120799190612c89565b60405180910390a15050565b6001816000016000828254019250508190555050565b60007f01ffc9a7000000000000000000000000000000000000000000000000000000007bffffffffffffffffffffffffffffffffffffffffffffffffffffffff1916827bffffffffffffffffffffffffffffffffffffffffffffffffffffffff1916149050919050565b60006002600083815260200190815260200160002060009054906101000a900473ffffffffffffffffffffffffffffffffffffffff169050919050565b808061217b5750600073ffffffffffffffffffffffffffffffffffffffff168273ffffffffffffffffffffffffffffffffffffffff1614155b156122af57600061218b846113a1565b9050600073ffffffffffffffffffffffffffffffffffffffff168373ffffffffffffffffffffffffffffffffffffffff16141580156121f657508273ffffffffffffffffffffffffffffffffffffffff168173ffffffffffffffffffffffffffffffffffffffff1614155b801561220957506122078184610d85565b155b1561224b57826040517fa9fbf51f0000000000000000000000000000000000000000000000000000000081526004016122429190612948565b60405180910390fd5b81156122ad57838573ffffffffffffffffffffffffffffffffffffffff168273ffffffffffffffffffffffffffffffffffffffff167f8c5be1e5ebec7d5bd14f71427d1e84f3dd0314c0f7b2291e5b200ac8c7c3b92560405160405180910390a45b505b836004600085815260200190815260200160002060006101000a81548173ffffffffffffffffffffffffffffffffffffffff021916908373ffffffffffffffffffffffffffffffffffffffff16021790555050505050565b612312838383612554565b6123c657600073ffffffffffffffffffffffffffffffffffffffff168373ffffffffffffffffffffffffffffffffffffffff160361238757806040517f7e27328900000000000000000000000000000000000000000000000000000000815260040161237e9190612c89565b60405180910390fd5b81816040517f177e802f0000000000000000000000000000000000000000000000000000000081526004016123bd929190613a57565b60405180910390fd5b505050565b600080600090507a184f03e93ff9f4daa797ed6e38ed64bf6a1f0100000000000000008310612429577a184f03e93ff9f4daa797ed6e38ed64bf6a1f010000000000000000838161241f5761241e613852565b5b0492506040810190505b6d04ee2d6d415b85acef81000000008310612466576d04ee2d6d415b85acef8100000000838161245c5761245b613852565b5b0492506020810190505b662386f26fc10000831061249557662386f26fc10000838161248b5761248a613852565b5b0492506010810190505b6305f5e10083106124be576305f5e10083816124b4576124b3613852565b5b0492506008810190505b61271083106124e35761271083816124d9576124d8613852565b5b0492506004810190505b6064831061250657606483816124fc576124fb613852565b5b0492506002810190505b600a8310612515576001810190505b80915050919050565b6125358161252d61129e612615565b63ffffffff16565b50565b6125428383612620565b61254f6000848484611809565b505050565b60008073ffffffffffffffffffffffffffffffffffffffff168373ffffffffffffffffffffffffffffffffffffffff161415801561260c57508273ffffffffffffffffffffffffffffffffffffffff168473ffffffffffffffffffffffffffffffffffffffff1614806125cd57506125cc8484610d85565b5b8061260b57508273ffffffffffffffffffffffffffffffffffffffff166125f383611429565b73ffffffffffffffffffffffffffffffffffffffff16145b5b90509392505050565b612719819050919050565b600073ffffffffffffffffffffffffffffffffffffffff168273ffffffffffffffffffffffffffffffffffffffff16036126925760006040517f64a0ae920000000000000000000000000000000000000000000000000000000081526004016126899190612948565b60405180910390fd5b60006126a083836000611480565b9050600073ffffffffffffffffffffffffffffffffffffffff168173ffffffffffffffffffffffffffffffffffffffff16146127145760006040517f73c6ac6e00000000000000000000000000000000000000000000000000000000815260040161270b9190612948565b60405180910390fd5b505050565b612721613a80565b565b6000604051905090565b600080fd5b600080fd5b60007fffffffff0000000000000000000000000000000000000000000000000000000082169050919050565b61276c81612737565b811461277757600080fd5b50565b60008135905061278981612763565b92915050565b6000602082840312156127a5576127a461272d565b5b60006127b38482850161277a565b91505092915050565b60008115159050919050565b6127d1816127bc565b82525050565b60006020820190506127ec60008301846127c8565b92915050565b600081519050919050565b600082825260208201905092915050565b60005b8381101561282c578082015181840152602081019050612811565b60008484015250505050565b6000601f19601f8301169050919050565b6000612854826127f2565b61285e81856127fd565b935061286e81856020860161280e565b61287781612838565b840191505092915050565b6000602082019050818103600083015261289c8184612849565b905092915050565b6000819050919050565b6128b7816128a4565b81146128c257600080fd5b50565b6000813590506128d4816128ae565b92915050565b6000602082840312156128f0576128ef61272d565b5b60006128fe848285016128c5565b91505092915050565b600073ffffffffffffffffffffffffffffffffffffffff82169050919050565b600061293282612907565b9050919050565b61294281612927565b82525050565b600060208201905061295d6000830184612939565b92915050565b61296c81612927565b811461297757600080fd5b50565b60008135905061298981612963565b92915050565b600080604083850312156129a6576129a561272d565b5b60006129b48582860161297a565b92505060206129c5858286016128c5565b9150509250929050565b600080fd5b600080fd5b600080fd5b60008083601f8401126129f4576129f36129cf565b5b8235905067ffffffffffffffff811115612a1157612a106129d4565b5b602083019150836001820283011115612a2d57612a2c6129d9565b5b9250929050565b60008060208385031215612a4b57612a4a61272d565b5b600083013567ffffffffffffffff811115612a6957612a68612732565b5b612a75858286016129de565b92509250509250929050565b600080600060608486031215612a9a57612a9961272d565b5b6000612aa88682870161297a565b9350506020612ab98682870161297a565b9250506040612aca868287016128c5565b9150509250925092565b600080fd5b7f4e487b7100000000000000000000000000000000000000000000000000000000600052604160045260246000fd5b612b1182612838565b810181811067ffffffffffffffff82111715612b3057612b2f612ad9565b5b80604052505050565b6000612b43612723565b9050612b4f8282612b08565b919050565b600067ffffffffffffffff821115612b6f57612b6e612ad9565b5b612b7882612838565b9050602081019050919050565b82818337600083830152505050565b6000612ba7612ba284612b54565b612b39565b905082815260208101848484011115612bc357612bc2612ad4565b5b612bce848285612b85565b509392505050565b600082601f830112612beb57612bea6129cf565b5b8135612bfb848260208601612b94565b91505092915050565b600060208284031215612c1a57612c1961272d565b5b600082013567ffffffffffffffff811115612c3857612c37612732565b5b612c4484828501612bd6565b91505092915050565b600060208284031215612c6357612c6261272d565b5b6000612c718482850161297a565b91505092915050565b612c83816128a4565b82525050565b6000602082019050612c9e6000830184612c7a565b92915050565b612cad816127bc565b8114612cb857600080fd5b50565b600081359050612cca81612ca4565b92915050565b60008060408385031215612ce757612ce661272d565b5b6000612cf58582860161297a565b9250506020612d0685828601612cbb565b9150509250929050565b600067ffffffffffffffff821115612d2b57612d2a612ad9565b5b612d3482612838565b9050602081019050919050565b6000612d54612d4f84612d10565b612b39565b905082815260208101848484011115612d7057612d6f612ad4565b5b612d7b848285612b85565b509392505050565b600082601f830112612d9857612d976129cf565b5b8135612da8848260208601612d41565b91505092915050565b60008060008060808587031215612dcb57612dca61272d565b5b6000612dd98782880161297a565b9450506020612dea8782880161297a565b9350506040612dfb878288016128c5565b925050606085013567ffffffffffffffff811115612e1c57612e1b612732565b5b612e2887828801612d83565b91505092959194509250565b60008060008060408587031215612e4e57612e4d61272d565b5b600085013567ffffffffffffffff811115612e6c57612e6b612732565b5b612e78878288016129de565b9450945050602085013567ffffffffffffffff811115612e9b57612e9a612732565b5b612ea7878288016129de565b925092505092959194509250565b60008060408385031215612ecc57612ecb61272d565b5b6000612eda8582860161297a565b9250506020612eeb8582860161297a565b9150509250929050565b7f4e487b7100000000000000000000000000000000000000000000000000000000600052602260045260246000fd5b60006002820490506001821680612f3c57607f821691505b602082108103612f4f57612f4e612ef5565b5b50919050565b600081905092915050565b6000612f6c8385612f55565b9350612f79838584612b85565b82840190509392505050565b6000612f92828486612f60565b91508190509392505050565b6000606082019050612fb36000830186612939565b612fc06020830185612c7a565b612fcd6040830184612939565b949350505050565b600082905092915050565b60008190508160005260206000209050919050565b60006020601f8301049050919050565b600082821b905092915050565b6000600883026130427fffffffffffffffffffffffffffffffffffffffffffffffffffffffffffffffff82613005565b61304c8683613005565b95508019841693508086168417925050509392505050565b6000819050919050565b600061308961308461307f846128a4565b613064565b6128a4565b9050919050565b6000819050919050565b6130a38361306e565b6130b76130af82613090565b848454613012565b825550505050565b600090565b6130cc6130bf565b6130d781848461309a565b505050565b5b818110156130fb576130f06000826130c4565b6001810190506130dd565b5050565b601f8211156131405761311181612fe0565b61311a84612ff5565b81016020851015613129578190505b61313d61313585612ff5565b8301826130dc565b50505b505050565b600082821c905092915050565b600061316360001984600802613145565b1980831691505092915050565b600061317c8383613152565b9150826002028217905092915050565b6131968383612fd5565b67ffffffffffffffff8111156131af576131ae612ad9565b5b6131b98254612f24565b6131c48282856130ff565b6000601f8311600181146131f357600084156131e1578287013590505b6131eb8582613170565b865550613253565b601f19841661320186612fe0565b60005b8281101561322957848901358255600182019150602085019450602081019050613204565b868310156132465784890135613242601f891682613152565b8355505b6001600288020188555050505b50505050505050565b6000613267826127f2565b6132718185612f55565b935061328181856020860161280e565b80840191505092915050565b6000613299828561325c565b91506132a5828461325c565b91508190509392505050565b7f4e6f7420656e6f756768204d6174696320706169640000000000000000000000600082015250565b60006132e76015836127fd565b91506132f2826132b1565b602082019050919050565b60006020820190508181036000830152613316816132da565b9050919050565b7f2e00000000000000000000000000000000000000000000000000000000000000600082015250565b6000613353600183612f55565b915061335e8261331d565b600182019050919050565b6000815461337681612f24565b6133808186612f55565b9450600182166000811461339b57600181146133b0576133e3565b60ff19831686528115158202860193506133e3565b6133b985612fe0565b60005b838110156133db578154818901526001820191506020810190506133bc565b838801955050505b50505092915050565b60006133f9828587612f60565b915061340482613346565b91506134108284613369565b9150819050949350505050565b60006134298286613369565b9150613435828561325c565b91506134418284613369565b9150819050949350505050565b7f7b226e616d65223a202200000000000000000000000000000000000000000000600082015250565b6000613484600a83612f55565b915061348f8261344e565b600a82019050919050565b7f222c20226465736372697074696f6e223a20224120646f6d61696e206f6e207460008201527f68652046756e6b206e616d652073657276696365222c2022696d616765223a2060208201527f22646174613a696d6167652f7376672b786d6c3b6261736536342c0000000000604082015250565b600061351c605b83612f55565b91506135278261349a565b605b82019050919050565b7f222c20226c656e677468223a2022000000000000000000000000000000000000600082015250565b6000613568600e83612f55565b915061357382613532565b600e82019050919050565b7f227d000000000000000000000000000000000000000000000000000000000000600082015250565b60006135b4600283612f55565b91506135bf8261357e565b600282019050919050565b60006135d582613477565b91506135e1828661325c565b91506135ec8261350f565b91506135f8828561325c565b91506136038261355b565b915061360f828461325c565b915061361a826135a7565b9150819050949350505050565b7f646174613a6170706c69636174696f6e2f6a736f6e3b6261736536342c000000600082015250565b600061365d601d83612f55565b915061366882613627565b601d82019050919050565b600061367e82613650565b915061368a828461325c565b915081905092915050565b600081519050919050565b600082825260208201905092915050565b60006136bc82613695565b6136c681856136a0565b93506136d681856020860161280e565b6136df81612838565b840191505092915050565b60006080820190506136ff6000830187612939565b61370c6020830186612939565b6137196040830185612c7a565b818103606083015261372b81846136b1565b905095945050505050565b60008151905061374581612763565b92915050565b6000602082840312156137615761376061272d565b5b600061376f84828501613736565b91505092915050565b7f4e487b7100000000000000000000000000000000000000000000000000000000600052603260045260246000fd5b7f4e487b7100000000000000000000000000000000000000000000000000000000600052601160045260246000fd5b60006137e1826128a4565b91506137ec836128a4565b9250828201905080821115613804576138036137a7565b5b92915050565b6000613815826128a4565b91507fffffffffffffffffffffffffffffffffffffffffffffffffffffffffffffffff8203613847576138466137a7565b5b600182019050919050565b7f4e487b7100000000000000000000000000000000000000000000000000000000600052601260045260246000fd5b6000608082019050818103600083015261389b8187612849565b905081810360208301526138af8186612849565b905081810360408301526138c38185612849565b90506138d26060830184612c7a565b95945050505050565b60006138e6826128a4565b91506138f1836128a4565b92508261390157613900613852565b5b828204905092915050565b6000613917826128a4565b9150613922836128a4565b9250828202613930816128a4565b91508282048414831517613947576139466137a7565b5b5092915050565b600060408201905081810360008301526139688185612849565b9050818103602083015261397c8184612849565b90509392505050565b61398e826127f2565b67ffffffffffffffff8111156139a7576139a6612ad9565b5b6139b18254612f24565b6139bc8282856130ff565b600060209050601f8311600181146139ef57600084156139dd578287015190505b6139e78582613170565b865550613a4f565b601f1984166139fd86612fe0565b60005b82811015613a2557848901518255600182019150602085019450602081019050613a00565b86831015613a425784890151613a3e601f891682613152565b8355505b6001600288020188555050505b505050505050565b6000604082019050613a6c6000830185612939565b613a796020830184612c7a565b9392505050565b7f4e487b7100000000000000000000000000000000000000000000000000000000600052605160045260246000fdfe0a2d2d2d2d2d2d2d2d2d2d2d2d2d2d2d2d2d2d2d2d2d2d2d2d2d2d2d2d2d2d2d2d2d2d2d2d2d2d2d2d2d2d2d2d2d2d2d2d2d2d2d2d2d2d2d2d5265676973746572696e672025732e2573206f6e2074686520636f6e7472616374207769746820746f6b656e49442025642d2d2d2d2d2d2d2d2d2d2d2d2d2d2d2d2d2d2d2d2d2d2d2d2d2d2d2d2d2d2d2d2d2d2d2d2d2d2d2d2d2d2d2d2d2d2d2d2d2d2d2d2d2d2d2d0a4142434445464748494a4b4c4d4e4f505152535455565758595a6162636465666768696a6b6c6d6e6f707172737475767778797a303132333435363738392b2fa26469706673582212202769891522f8f59b06f3a4b79b1ab16b49f7636820516d7b570b340f57b25c0764736f6c634300081400333c73766720786d6c6e733d22687474703a2f2f7777772e77332e6f72672f323030302f737667222077696474683d2232373022206865696768743d22323730222066696c6c3d226e6f6e65223e3c706174682066696c6c3d2275726c282342292220643d224d302030683237307632373048307a222f3e3c646566733e3c66696c7465722069643d22412220636f6c6f722d696e746572706f6c6174696f6e2d66696c746572733d2273524742222066696c746572556e6974733d227573657253706163654f6e55736522206865696768743d22323730222077696474683d22323730223e3c666544726f70536861646f772064783d2230222064793d22312220737464446576696174696f6e3d22322220666c6f6f642d6f7061636974793d222e323235222077696474683d223230302522206865696768743d2232303025222f3e3c2f66696c7465723e3c2f646566733e3c7061746820643d224d37322e3836332034322e393439632d2e3636382d2e3338372d312e3432362d2e35392d322e3139372d2e3539732d312e3532392e3230342d322e3139372e35396c2d31302e30383120362e3033322d362e383520332e3933342d31302e30383120362e303332632d2e3636382e3338372d312e3432362e35392d322e3139372e3539732d312e3532392d2e3230342d322e3139372d2e35396c2d382e3031332d342e37323161342e353220342e35322030203020312d312e3538392d312e363136632d2e3338342d2e3636352d2e3539342d312e3431382d2e3630382d322e313837762d392e3331632d2e3031332d2e3737352e3138352d312e3533382e3537322d322e32303861342e323520342e323520302030203120312e3632352d312e3539356c372e3838342d342e3539632e3636382d2e33383720312e3432362d2e353920322e3139372d2e353973312e3532392e32303420322e3139372e35396c372e38383420342e353961342e353220342e353220302030203120312e35383920312e363136632e3338342e3636352e35393420312e3431382e36303820322e31383776362e3033326c362e38352d342e303635762d362e303332632e3031332d2e3737352d2e3138352d312e3533382d2e3537322d322e32303861342e323520342e32352030203020302d312e3632352d312e3539354c34312e3435362032342e3539632d2e3636382d2e3338372d312e3432362d2e35392d322e3139372d2e3539732d312e3532392e3230342d322e3139372e35396c2d31342e38363420382e36353561342e323520342e32352030203020302d312e36323520312e353935632d2e3338372e36372d2e35383520312e3433342d2e35373220322e3230387631372e343431632d2e3031332e3737352e31383520312e3533382e35373220322e32303861342e323520342e323520302030203020312e36323520312e3539356c31342e38363420382e363535632e3636382e33383720312e3432362e353920322e3139372e353973312e3532392d2e32303420322e3139372d2e35396c31302e3038312d352e39303120362e38352d342e3036352031302e3038312d352e393031632e3636382d2e33383720312e3432362d2e353920322e3139372d2e353973312e3532392e32303420322e3139372e35396c372e38383420342e353961342e353220342e353220302030203120312e35383920312e363136632e3338342e3636352e35393420312e3431382e36303820322e31383776392e333131632e3031332e3737352d2e31383520312e3533382d2e35373220322e32303861342e323520342e32352030203020312d312e36323520312e3539356c2d372e38383420342e373231632d2e3636382e3338372d312e3432362e35392d322e3139372e3539732d312e3532392d2e3230342d322e3139372d2e35396c2d372e3838342d342e353961342e353220342e35322030203020312d312e3538392d312e363136632d2e3338352d2e3636352d2e3539342d312e3431382d2e3630382d322e313837762d362e3033326c2d362e383520342e30363576362e303332632d2e3031332e3737352e31383520312e3533382e35373220322e32303861342e323520342e323520302030203020312e36323520312e3539356c31342e38363420382e363535632e3636382e33383720312e3432362e353920322e3139372e353973312e3532392d2e32303420322e3139372d2e35396c31342e3836342d382e363535632e3635372d2e33393420312e3230342d2e393520312e3538392d312e363136732e3539342d312e3431382e3630392d322e3138375635352e353338632e3031332d2e3737352d2e3138352d312e3533382d2e3537322d322e32303861342e323520342e32352030203020302d312e3632352d312e3539356c2d31342e3939332d382e3738367a222066696c6c3d2223666666222f3e3c646566733e3c6c696e6561724772616469656e742069643d2242222078313d2230222079313d2230222078323d22323730222079323d2232373022206772616469656e74556e6974733d227573657253706163654f6e557365223e3c73746f702073746f702d636f6c6f723d2223636235656565222f3e3c73746f70206f66667365743d2231222073746f702d636f6c6f723d2223306364376534222073746f702d6f7061636974793d222e3939222f3e3c2f6c696e6561724772616469656e743e3c2f646566733e3c7465787420783d2233322e352220793d223233312220666f6e742d73697a653d223237222066696c6c3d2223666666222066696c7465723d2275726c282341292220666f6e742d66616d696c793d22506c7573204a616b617274612053616e732c44656a6156752053616e732c4e6f746f20436f6c6f7220456d6f6a692c4170706c6520436f6c6f7220456d6f6a692c73616e732d73657269662220666f6e742d7765696768743d22626f6c64223e",
  "linkReferences": {},
  "deployedLinkReferences": {}
}